{
  "_format": "hh-sol-artifact-1",
  "contractName": "UserInformation",
  "sourceName": "contracts/Login.sol",
  "abi": [
    {
      "inputs": [
        {
          "internalType": "string",
          "name": "username",
          "type": "string"
        },
        {
          "internalType": "string",
          "name": "github",
          "type": "string"
        },
        {
          "internalType": "string",
          "name": "linkedin",
          "type": "string"
        }
      ],
      "name": "setUserInfo",
      "outputs": [],
      "stateMutability": "nonpayable",
      "type": "function"
    },
    {
      "inputs": [
        {
          "internalType": "address",
          "name": "",
          "type": "address"
        }
      ],
      "name": "users",
      "outputs": [
        {
          "internalType": "string",
          "name": "username",
          "type": "string"
        },
        {
          "internalType": "string",
          "name": "github",
          "type": "string"
        },
        {
          "internalType": "string",
          "name": "linkedin",
          "type": "string"
        }
      ],
      "stateMutability": "view",
      "type": "function"
    }
  ],
  "bytecode": "0x608060405234801561001057600080fd5b5061093e806100206000396000f3fe608060405234801561001057600080fd5b50600436106100365760003560e01c80638ffe411f1461003b578063a87430ba14610057575b600080fd5b61005560048036038101906100509190610423565b610089565b005b610071600480360381019061006c9190610528565b610107565b604051610080939291906105d4565b60405180910390f35b60008060003373ffffffffffffffffffffffffffffffffffffffff1673ffffffffffffffffffffffffffffffffffffffff1681526020019081526020016000209050838160000190816100dc9190610836565b50828160010190816100ee9190610836565b50818160020190816101009190610836565b5050505050565b600060205280600052604060002060009150905080600001805461012a9061064f565b80601f01602080910402602001604051908101604052809291908181526020018280546101569061064f565b80156101a35780601f10610178576101008083540402835291602001916101a3565b820191906000526020600020905b81548152906001019060200180831161018657829003601f168201915b5050505050908060010180546101b89061064f565b80601f01602080910402602001604051908101604052809291908181526020018280546101e49061064f565b80156102315780601f1061020657610100808354040283529160200191610231565b820191906000526020600020905b81548152906001019060200180831161021457829003601f168201915b5050505050908060020180546102469061064f565b80601f01602080910402602001604051908101604052809291908181526020018280546102729061064f565b80156102bf5780601f10610294576101008083540402835291602001916102bf565b820191906000526020600020905b8154815290600101906020018083116102a257829003601f168201915b5050505050905083565b6000604051905090565b600080fd5b600080fd5b600080fd5b600080fd5b6000601f19601f8301169050919050565b7f4e487b7100000000000000000000000000000000000000000000000000000000600052604160045260246000fd5b610330826102e7565b810181811067ffffffffffffffff8211171561034f5761034e6102f8565b5b80604052505050565b60006103626102c9565b905061036e8282610327565b919050565b600067ffffffffffffffff82111561038e5761038d6102f8565b5b610397826102e7565b9050602081019050919050565b82818337600083830152505050565b60006103c66103c184610373565b610358565b9050828152602081018484840111156103e2576103e16102e2565b5b6103ed8482856103a4565b509392505050565b600082601f83011261040a576104096102dd565b5b813561041a8482602086016103b3565b91505092915050565b60008060006060848603121561043c5761043b6102d3565b5b600084013567ffffffffffffffff81111561045a576104596102d8565b5b610466868287016103f5565b935050602084013567ffffffffffffffff811115610487576104866102d8565b5b610493868287016103f5565b925050604084013567ffffffffffffffff8111156104b4576104b36102d8565b5b6104c0868287016103f5565b9150509250925092565b600073ffffffffffffffffffffffffffffffffffffffff82169050919050565b60006104f5826104ca565b9050919050565b610505816104ea565b811461051057600080fd5b50565b600081359050610522816104fc565b92915050565b60006020828403121561053e5761053d6102d3565b5b600061054c84828501610513565b91505092915050565b600081519050919050565b600082825260208201905092915050565b60005b8381101561058f578082015181840152602081019050610574565b60008484015250505050565b60006105a682610555565b6105b08185610560565b93506105c0818560208601610571565b6105c9816102e7565b840191505092915050565b600060608201905081810360008301526105ee818661059b565b90508181036020830152610602818561059b565b90508181036040830152610616818461059b565b9050949350505050565b7f4e487b7100000000000000000000000000000000000000000000000000000000600052602260045260246000fd5b6000600282049050600182168061066757607f821691505b60208210810361067a57610679610620565b5b50919050565b60008190508160005260206000209050919050565b60006020601f8301049050919050565b600082821b905092915050565b6000600883026106e27fffffffffffffffffffffffffffffffffffffffffffffffffffffffffffffffff826106a5565b6106ec86836106a5565b95508019841693508086168417925050509392505050565b6000819050919050565b6000819050919050565b600061073361072e61072984610704565b61070e565b610704565b9050919050565b6000819050919050565b61074d83610718565b6107616107598261073a565b8484546106b2565b825550505050565b600090565b610776610769565b610781818484610744565b505050565b5b818110156107a55761079a60008261076e565b600181019050610787565b5050565b601f8211156107ea576107bb81610680565b6107c484610695565b810160208510156107d3578190505b6107e76107df85610695565b830182610786565b50505b505050565b600082821c905092915050565b600061080d600019846008026107ef565b1980831691505092915050565b600061082683836107fc565b9150826002028217905092915050565b61083f82610555565b67ffffffffffffffff811115610858576108576102f8565b5b610862825461064f565b61086d8282856107a9565b600060209050601f8311600181146108a0576000841561088e578287015190505b610898858261081a565b865550610900565b601f1984166108ae86610680565b60005b828110156108d6578489015182556001820191506020850194506020810190506108b1565b868310156108f357848901516108ef601f8916826107fc565b8355505b6001600288020188555050505b50505050505056fea26469706673582212205b3cca932ea06270f0f050e6e04ef6e6c013c812ce9e1342aaa1cb7bb2c9cddf64736f6c63430008130033",
  "linkReferences": {},
  "deployedLinkReferences": {}
}